{
  "_format": "hh-sol-artifact-1",
  "contractName": "AirbroFactory",
  "sourceName": "contracts/AirbroFactory.sol",
  "abi": [
    {
      "inputs": [],
      "stateMutability": "nonpayable",
      "type": "constructor"
    },
    {
      "anonymous": false,
      "inputs": [
        {
          "indexed": true,
          "internalType": "address",
          "name": "rewardedNftCollection",
          "type": "address"
        },
        {
          "indexed": true,
          "internalType": "address",
          "name": "airdropContract",
          "type": "address"
        }
      ],
      "name": "NewAirdrop",
      "type": "event"
    },
    {
      "inputs": [
        {
          "internalType": "address",
          "name": "rewardedNftCollection",
          "type": "address"
        },
        {
          "internalType": "string",
          "name": "newTokenName",
          "type": "string"
        },
        {
          "internalType": "string",
          "name": "newTokenSymbol",
          "type": "string"
        },
        {
          "internalType": "uint256",
          "name": "tokensPerClaim",
          "type": "uint256"
        }
      ],
      "name": "dropNewTokensToNftHolders",
      "outputs": [],
      "stateMutability": "nonpayable",
      "type": "function"
    },
    {
      "inputs": [
        {
          "internalType": "address",
          "name": "rewardedNftCollection",
          "type": "address"
        },
        {
          "internalType": "string",
          "name": "newNftCollectionName",
          "type": "string"
        },
        {
          "internalType": "string",
          "name": "newNftCollectionSymbol",
          "type": "string"
        },
        {
          "internalType": "uint256",
          "name": "newNftSupply",
          "type": "uint256"
        },
        {
          "internalType": "string",
          "name": "baseUri",
          "type": "string"
        }
      ],
      "name": "dropNftsToNftHolders",
      "outputs": [],
      "stateMutability": "nonpayable",
      "type": "function"
    }
  ],
  "bytecode": "0x608060405234801561001057600080fd5b50612e2e806100206000396000f3fe60806040523480156200001157600080fd5b50600436106200003a5760003560e01c8063289dbeba146200003f5780637ca276971462000058575b600080fd5b62000056620000503660046200026a565b6200006f565b005b6200005662000069366004620002ef565b620000f9565b600084828585604051620000839062000186565b620000929493929190620003ee565b604051809103906000f080158015620000af573d6000803e3d6000fd5b509050806001600160a01b0316856001600160a01b03167f20ce848eb820450bcfc911b47b938b4e4bb619a9356c020cb6b49bdb0a4f0beb60405160405180910390a35050505050565b600085838686856040516200010e9062000194565b6200011e95949392919062000437565b604051809103906000f0801580156200013b573d6000803e3d6000fd5b509050806001600160a01b0316866001600160a01b03167f20ce848eb820450bcfc911b47b938b4e4bb619a9356c020cb6b49bdb0a4f0beb60405160405180910390a3505050505050565b61152f806200049883390190565b61145b80620019c783390190565b80356001600160a01b0381168114620001ba57600080fd5b919050565b634e487b7160e01b600052604160045260246000fd5b600082601f830112620001e757600080fd5b813567ffffffffffffffff80821115620002055762000205620001bf565b604051601f8301601f19908116603f01168101908282118183101715620002305762000230620001bf565b816040528381528660208588010111156200024a57600080fd5b836020870160208301376000602085830101528094505050505092915050565b600080600080608085870312156200028157600080fd5b6200028c85620001a2565b9350602085013567ffffffffffffffff80821115620002aa57600080fd5b620002b888838901620001d5565b94506040870135915080821115620002cf57600080fd5b50620002de87828801620001d5565b949793965093946060013593505050565b600080600080600060a086880312156200030857600080fd5b6200031386620001a2565b9450602086013567ffffffffffffffff808211156200033157600080fd5b6200033f89838a01620001d5565b955060408801359150808211156200035657600080fd5b6200036489838a01620001d5565b94506060880135935060808801359150808211156200038257600080fd5b506200039188828901620001d5565b9150509295509295909350565b6000815180845260005b81811015620003c657602081850181015186830182015201620003a8565b81811115620003d9576000602083870101525b50601f01601f19169290920160200192915050565b6001600160a01b03851681528360208201526080604082015260006200041860808301856200039e565b82810360608401526200042c81856200039e565b979650505050505050565b6001600160a01b038616815284602082015260a0604082015260006200046160a08301866200039e565b82810360608401526200047581866200039e565b905082810360808401526200048b81856200039e565b9897505050505050505056fe6101206040523480156200001257600080fd5b506040516200152f3803806200152f8339810160408190526200003591620002ac565b8181601282600090805190602001906200005192919062000139565b5081516200006790600190602085019062000139565b5060ff81166080524660a0526200007d6200009d565b60c0525050506001600160a01b0390931660e05250610100525062000421565b60007f8b73c3c69bb8fe3d512ecc4cf759cc79239f7b179b0ffacaa9a75d522b39400f6000604051620000d191906200037d565b6040805191829003822060208301939093528101919091527fc89efdaa54c0f20c7adf612882df0950f5a951637e0307cdcb4c672f298b8bc660608201524660808201523060a082015260c00160405160208183030381529060405280519060200120905090565b828054620001479062000340565b90600052602060002090601f0160209004810192826200016b5760008555620001b6565b82601f106200018657805160ff1916838001178555620001b6565b82800160010185558215620001b6579182015b82811115620001b657825182559160200191906001019062000199565b50620001c4929150620001c8565b5090565b5b80821115620001c45760008155600101620001c9565b634e487b7160e01b600052604160045260246000fd5b600082601f8301126200020757600080fd5b81516001600160401b0380821115620002245762000224620001df565b604051601f8301601f19908116603f011681019082821181831017156200024f576200024f620001df565b816040528381526020925086838588010111156200026c57600080fd5b600091505b8382101562000290578582018301518183018401529082019062000271565b83821115620002a25760008385830101525b9695505050505050565b60008060008060808587031215620002c357600080fd5b84516001600160a01b0381168114620002db57600080fd5b6020860151604087015191955093506001600160401b03808211156200030057600080fd5b6200030e88838901620001f5565b935060608701519150808211156200032557600080fd5b506200033487828801620001f5565b91505092959194509250565b600181811c908216806200035557607f821691505b602082108114156200037757634e487b7160e01b600052602260045260246000fd5b50919050565b600080835481600182811c9150808316806200039a57607f831692505b6020808410821415620003bb57634e487b7160e01b86526022600452602486fd5b818015620003d25760018114620003e45762000413565b60ff1986168952848901965062000413565b60008a81526020902060005b868110156200040b5781548b820152908501908301620003f0565b505084890196505b509498975050505050505050565b60805160a05160c05160e051610100516110ad6200048260003960008181610336015281816106ca01526108e70152600081816101ab015281816105ef01526107f60152600061057d015260006105480152600061021101526110ad6000f3fe608060405234801561001057600080fd5b50600436106101365760003560e01c806370a08231116100b2578063bc29278211610081578063d505accf11610066578063d505accf146102f3578063dd62ed3e14610306578063f35a13861461033157600080fd5b8063bc292782146102bd578063ce516507146102d057600080fd5b806370a08231146102625780637ecebe001461028257806395d89b41146102a2578063a9059cbb146102aa57600080fd5b80632a359ca911610109578063313ce567116100ee578063313ce5671461020c5780633644e51514610245578063379607f51461024d57600080fd5b80632a359ca9146101a657806330adf81f146101e557600080fd5b806306fdde031461013b578063095ea7b31461015957806318160ddd1461017c57806323b872dd14610193575b600080fd5b610143610358565b6040516101509190610c7f565b60405180910390f35b61016c610167366004610ce9565b6103e6565b6040519015158152602001610150565b61018560025481565b604051908152602001610150565b61016c6101a1366004610d15565b610452565b6101cd7f000000000000000000000000000000000000000000000000000000000000000081565b6040516001600160a01b039091168152602001610150565b6101857f6e71edae12b1b97f4d1f60370fef10105fa2faae0126114a169c64845d6126c981565b6102337f000000000000000000000000000000000000000000000000000000000000000081565b60405160ff9091168152602001610150565b610185610544565b61026061025b366004610d56565b61059f565b005b610185610270366004610d6f565b60036020526000908152604090205481565b610185610290366004610d6f565b60056020526000908152604090205481565b6101436106f1565b61016c6102b8366004610ce9565b6106fe565b6102606102cb366004610da9565b610776565b61016c6102de366004610d56565b60066020526000908152604090205460ff1681565b610260610301366004610e67565b610915565b610185610314366004610ede565b600460209081526000928352604080842090915290825290205481565b6101857f000000000000000000000000000000000000000000000000000000000000000081565b6000805461036590610f17565b80601f016020809104026020016040519081016040528092919081815260200182805461039190610f17565b80156103de5780601f106103b3576101008083540402835291602001916103de565b820191906000526020600020905b8154815290600101906020018083116103c157829003601f168201915b505050505081565b3360008181526004602090815260408083206001600160a01b038716808552925280832085905551919290917f8c5be1e5ebec7d5bd14f71427d1e84f3dd0314c0f7b2291e5b200ac8c7c3b925906104419086815260200190565b60405180910390a350600192915050565b6001600160a01b038316600090815260046020908152604080832033845290915281205460001981146104ae576104898382610f68565b6001600160a01b03861660009081526004602090815260408083203384529091529020555b6001600160a01b038516600090815260036020526040812080548592906104d6908490610f68565b90915550506001600160a01b03808516600081815260036020526040908190208054870190555190918716907fddf252ad1be2c89b69c2b068fc378daa952ba7f163c4a11628f55a4df523b3ef906105319087815260200190565b60405180910390a3506001949350505050565b60007f0000000000000000000000000000000000000000000000000000000000000000461461057a57610575610b7a565b905090565b507f000000000000000000000000000000000000000000000000000000000000000090565b60008181526006602052604090205460ff16156105cf576040516306d3830f60e21b815260040160405180910390fd5b6040516331a9108f60e11b81526004810182905233906001600160a01b037f00000000000000000000000000000000000000000000000000000000000000001690636352211e90602401602060405180830381865afa158015610636573d6000803e3d6000fd5b505050506040513d601f19601f8201168201806040525081019061065a9190610f7f565b6001600160a01b031614610681576040516330cd747160e01b815260040160405180910390fd5b600081815260066020526040808220805460ff1916600117905551339183917f6aa3eac93d079e5e100b1029be716caa33586c96aa4baac390669fb5c2a212129190a36106ee337f0000000000000000000000000000000000000000000000000000000000000000610c14565b50565b6001805461036590610f17565b3360009081526003602052604081208054839190839061071f908490610f68565b90915550506001600160a01b038316600081815260036020526040908190208054850190555133907fddf252ad1be2c89b69c2b068fc378daa952ba7f163c4a11628f55a4df523b3ef906104419086815260200190565b60005b81518110156108de57600082828151811061079657610796610f9c565b6020908102919091018101516000818152600690925260409091205490915060ff16156107d6576040516306d3830f60e21b815260040160405180910390fd5b6040516331a9108f60e11b81526004810182905233906001600160a01b037f00000000000000000000000000000000000000000000000000000000000000001690636352211e90602401602060405180830381865afa15801561083d573d6000803e3d6000fd5b505050506040513d601f19601f820116820180604052508101906108619190610f7f565b6001600160a01b031614610888576040516330cd747160e01b815260040160405180910390fd5b600081815260066020526040808220805460ff1916600117905551339183917f6aa3eac93d079e5e100b1029be716caa33586c96aa4baac390669fb5c2a212129190a350806108d681610fb2565b915050610779565b506106ee3382517f00000000000000000000000000000000000000000000000000000000000000006109109190610fcd565b610c14565b4284101561096a5760405162461bcd60e51b815260206004820152601760248201527f5045524d49545f444541444c494e455f4558504952454400000000000000000060448201526064015b60405180910390fd5b6000610974610544565b6001600160a01b0389811660008181526005602090815260409182902080546001810190915582517f6e71edae12b1b97f4d1f60370fef10105fa2faae0126114a169c64845d6126c98184015280840194909452938c166060840152608083018b905260a083019390935260c08083018a90528151808403909101815260e08301909152805192019190912061190160f01b6101008301526101028201929092526101228101919091526101420160408051601f198184030181528282528051602091820120600080855291840180845281905260ff88169284019290925260608301869052608083018590529092509060019060a0016020604051602081039080840390855afa158015610a8d573d6000803e3d6000fd5b5050604051601f1901519150506001600160a01b03811615801590610ac35750886001600160a01b0316816001600160a01b0316145b610b0f5760405162461bcd60e51b815260206004820152600e60248201527f494e56414c49445f5349474e45520000000000000000000000000000000000006044820152606401610961565b6001600160a01b0390811660009081526004602090815260408083208b8516808552908352928190208a905551898152919350918a16917f8c5be1e5ebec7d5bd14f71427d1e84f3dd0314c0f7b2291e5b200ac8c7c3b925910160405180910390a350505050505050565b60007f8b73c3c69bb8fe3d512ecc4cf759cc79239f7b179b0ffacaa9a75d522b39400f6000604051610bac9190610fec565b6040805191829003822060208301939093528101919091527fc89efdaa54c0f20c7adf612882df0950f5a951637e0307cdcb4c672f298b8bc660608201524660808201523060a082015260c00160405160208183030381529060405280519060200120905090565b8060026000828254610c269190611088565b90915550506001600160a01b0382166000818152600360209081526040808320805486019055518481527fddf252ad1be2c89b69c2b068fc378daa952ba7f163c4a11628f55a4df523b3ef910160405180910390a35050565b600060208083528351808285015260005b81811015610cac57858101830151858201604001528201610c90565b81811115610cbe576000604083870101525b50601f01601f1916929092016040019392505050565b6001600160a01b03811681146106ee57600080fd5b60008060408385031215610cfc57600080fd5b8235610d0781610cd4565b946020939093013593505050565b600080600060608486031215610d2a57600080fd5b8335610d3581610cd4565b92506020840135610d4581610cd4565b929592945050506040919091013590565b600060208284031215610d6857600080fd5b5035919050565b600060208284031215610d8157600080fd5b8135610d8c81610cd4565b9392505050565b634e487b7160e01b600052604160045260246000fd5b60006020808385031215610dbc57600080fd5b823567ffffffffffffffff80821115610dd457600080fd5b818501915085601f830112610de857600080fd5b813581811115610dfa57610dfa610d93565b8060051b604051601f19603f83011681018181108582111715610e1f57610e1f610d93565b604052918252848201925083810185019188831115610e3d57600080fd5b938501935b82851015610e5b57843584529385019392850192610e42565b98975050505050505050565b600080600080600080600060e0888a031215610e8257600080fd5b8735610e8d81610cd4565b96506020880135610e9d81610cd4565b95506040880135945060608801359350608088013560ff81168114610ec157600080fd5b9699959850939692959460a0840135945060c09093013592915050565b60008060408385031215610ef157600080fd5b8235610efc81610cd4565b91506020830135610f0c81610cd4565b809150509250929050565b600181811c90821680610f2b57607f821691505b60208210811415610f4c57634e487b7160e01b600052602260045260246000fd5b50919050565b634e487b7160e01b600052601160045260246000fd5b600082821015610f7a57610f7a610f52565b500390565b600060208284031215610f9157600080fd5b8151610d8c81610cd4565b634e487b7160e01b600052603260045260246000fd5b6000600019821415610fc657610fc6610f52565b5060010190565b6000816000190483118215151615610fe757610fe7610f52565b500290565b600080835481600182811c91508083168061100857607f831692505b602080841082141561102857634e487b7160e01b86526022600452602486fd5b81801561103c576001811461104d5761107a565b60ff1986168952848901965061107a565b60008a81526020902060005b868110156110725781548b820152908501908301611059565b505084890196505b509498975050505050505050565b6000821982111561109b5761109b610f52565b50019056fea164736f6c634300080b000a60c06040526040516200145b3803806200145b8339810160408190526200002691620001fb565b8251839083906200003f90600090602085019062000088565b5080516200005590600190602084019062000088565b505081516200006d9150600790602084019062000088565b5050506001600160a01b0390921660a05260805250620002f4565b8280546200009690620002b7565b90600052602060002090601f016020900481019282620000ba576000855562000105565b82601f10620000d557805160ff191683800117855562000105565b8280016001018555821562000105579182015b8281111562000105578251825591602001919060010190620000e8565b506200011392915062000117565b5090565b5b8082111562000113576000815560010162000118565b634e487b7160e01b600052604160045260246000fd5b600082601f8301126200015657600080fd5b81516001600160401b03808211156200017357620001736200012e565b604051601f8301601f19908116603f011681019082821181831017156200019e576200019e6200012e565b81604052838152602092508683858801011115620001bb57600080fd5b600091505b83821015620001df5785820183015181830184015290820190620001c0565b83821115620001f15760008385830101525b9695505050505050565b600080600080600060a086880312156200021457600080fd5b85516001600160a01b03811681146200022c57600080fd5b6020870151604088015191965094506001600160401b03808211156200025157600080fd5b6200025f89838a0162000144565b945060608801519150808211156200027657600080fd5b6200028489838a0162000144565b935060808801519150808211156200029b57600080fd5b50620002aa8882890162000144565b9150509295509295909350565b600181811c90821680620002cc57607f821691505b60208210811415620002ee57634e487b7160e01b600052602260045260246000fd5b50919050565b60805160a051611133620003286000396000818161021801526108ae01526000818161031a015261094201526111336000f3fe608060405234801561001057600080fd5b50600436106101515760003560e01c80636c0360eb116100cd578063b88d4fde11610081578063ce51650711610066578063ce516507146102f2578063d5abeb0114610315578063e985e9c51461033c57600080fd5b8063b88d4fde146102cc578063c87b56dd146102df57600080fd5b806395d89b41116100b257806395d89b411461029e578063a0712d68146102a6578063a22cb465146102b957600080fd5b80636c0360eb1461027657806370a082311461027e57600080fd5b806318160ddd116101245780632a359ca9116101095780632a359ca91461021357806342842e0e1461023a5780636352211e1461024d57600080fd5b806318160ddd146101e957806323b872dd1461020057600080fd5b806301ffc9a71461015657806306fdde031461017e578063081812fc14610193578063095ea7b3146101d4575b600080fd5b610169610164366004610cef565b61036a565b60405190151581526020015b60405180910390f35b6101866103d7565b6040516101759190610d60565b6101bc6101a1366004610d73565b6004602052600090815260409020546001600160a01b031681565b6040516001600160a01b039091168152602001610175565b6101e76101e2366004610da1565b610465565b005b6101f260065481565b604051908152602001610175565b6101e761020e366004610dcd565b610559565b6101bc7f000000000000000000000000000000000000000000000000000000000000000081565b6101e7610248366004610dcd565b61074c565b6101bc61025b366004610d73565b6003602052600090815260409020546001600160a01b031681565b610186610844565b6101f261028c366004610e0e565b60026020526000908152604090205481565b610186610851565b6101e76102b4366004610d73565b61085e565b6101e76102c7366004610e2b565b6109f3565b6101e76102da366004610e7f565b610a5f565b6101866102ed366004610d73565b610b44565b610169610300366004610d73565b60086020526000908152604090205460ff1681565b6101f27f000000000000000000000000000000000000000000000000000000000000000081565b61016961034a366004610f5f565b600560209081526000928352604080842090915290825290205460ff1681565b60006307f5828d60e41b6001600160e01b03198316148061039b57506380ac58cd60e01b6001600160e01b03198316145b806103b65750635b5e139f60e01b6001600160e01b03198316145b806103d157506301ffc9a760e01b6001600160e01b03198316145b92915050565b600080546103e490610f8d565b80601f016020809104026020016040519081016040528092919081815260200182805461041090610f8d565b801561045d5780601f106104325761010080835404028352916020019161045d565b820191906000526020600020905b81548152906001019060200180831161044057829003601f168201915b505050505081565b6000818152600360205260409020546001600160a01b0316338114806104ae57506001600160a01b038116600090815260056020908152604080832033845290915290205460ff165b6104f05760405162461bcd60e51b815260206004820152600e60248201526d1393d517d055551213d49256915160921b60448201526064015b60405180910390fd5b600082815260046020526040808220805473ffffffffffffffffffffffffffffffffffffffff19166001600160a01b0387811691821790925591518593918516917f8c5be1e5ebec7d5bd14f71427d1e84f3dd0314c0f7b2291e5b200ac8c7c3b92591a4505050565b6000818152600360205260409020546001600160a01b038481169116146105c25760405162461bcd60e51b815260206004820152600a60248201527f57524f4e475f46524f4d0000000000000000000000000000000000000000000060448201526064016104e7565b6001600160a01b0382166106185760405162461bcd60e51b815260206004820152601160248201527f494e56414c49445f524543495049454e5400000000000000000000000000000060448201526064016104e7565b336001600160a01b038416148061064557506000818152600460205260409020546001600160a01b031633145b8061067357506001600160a01b038316600090815260056020908152604080832033845290915290205460ff165b6106b05760405162461bcd60e51b815260206004820152600e60248201526d1393d517d055551213d49256915160921b60448201526064016104e7565b6001600160a01b03808416600081815260026020908152604080832080546000190190559386168083528483208054600101905585835260038252848320805473ffffffffffffffffffffffffffffffffffffffff199081168317909155600490925284832080549092169091559251849392917fddf252ad1be2c89b69c2b068fc378daa952ba7f163c4a11628f55a4df523b3ef91a4505050565b610757838383610559565b6001600160a01b0382163b15806108005750604051630a85bd0160e11b8082523360048301526001600160a01b03858116602484015260448301849052608060648401526000608484015290919084169063150b7a029060a4016020604051808303816000875af11580156107d0573d6000803e3d6000fd5b505050506040513d601f19601f820116820180604052508101906107f49190610fc8565b6001600160e01b031916145b61083f5760405162461bcd60e51b815260206004820152601060248201526f155394d0519157d49150d2541251539560821b60448201526064016104e7565b505050565b600780546103e490610f8d565b600180546103e490610f8d565b60008181526008602052604090205460ff161561088e576040516306d3830f60e21b815260040160405180910390fd5b6040516331a9108f60e11b81526004810182905233906001600160a01b037f00000000000000000000000000000000000000000000000000000000000000001690636352211e90602401602060405180830381865afa1580156108f5573d6000803e3d6000fd5b505050506040513d601f19601f820116820180604052508101906109199190610fe5565b6001600160a01b031614610940576040516330cd747160e01b815260040160405180910390fd5b7f000000000000000000000000000000000000000000000000000000000000000060065460016109709190611018565b1061098e57604051637364ba1760e01b815260040160405180910390fd5b600081815260086020526040808220805460ff1916600117905551339183917f6aa3eac93d079e5e100b1029be716caa33586c96aa4baac390669fb5c2a212129190a3600680546109f09133919060006109e783611030565b91905055610ba6565b50565b3360008181526005602090815260408083206001600160a01b03871680855290835292819020805460ff191686151590811790915590519081529192917f17307eab39ab6107e8899845ad3d59bd9653f200f220920489ca2b5937696c31910160405180910390a35050565b610a6a848484610559565b6001600160a01b0383163b1580610aff5750604051630a85bd0160e11b808252906001600160a01b0385169063150b7a0290610ab090339089908890889060040161104b565b6020604051808303816000875af1158015610acf573d6000803e3d6000fd5b505050506040513d601f19601f82011682018060405250810190610af39190610fc8565b6001600160e01b031916145b610b3e5760405162461bcd60e51b815260206004820152601060248201526f155394d0519157d49150d2541251539560821b60448201526064016104e7565b50505050565b6000818152600360205260409020546060906001600160a01b0316610b7c5760405163b0ce759160e01b815260040160405180910390fd5b600782604051602001610b90929190611087565b6040516020818303038152906040529050919050565b6001600160a01b038216610bfc5760405162461bcd60e51b815260206004820152601160248201527f494e56414c49445f524543495049454e5400000000000000000000000000000060448201526064016104e7565b6000818152600360205260409020546001600160a01b031615610c615760405162461bcd60e51b815260206004820152600e60248201527f414c52454144595f4d494e54454400000000000000000000000000000000000060448201526064016104e7565b6001600160a01b0382166000818152600260209081526040808320805460010190558483526003909152808220805473ffffffffffffffffffffffffffffffffffffffff19168417905551839291907fddf252ad1be2c89b69c2b068fc378daa952ba7f163c4a11628f55a4df523b3ef908290a45050565b6001600160e01b0319811681146109f057600080fd5b600060208284031215610d0157600080fd5b8135610d0c81610cd9565b9392505050565b6000815180845260005b81811015610d3957602081850181015186830182015201610d1d565b81811115610d4b576000602083870101525b50601f01601f19169290920160200192915050565b602081526000610d0c6020830184610d13565b600060208284031215610d8557600080fd5b5035919050565b6001600160a01b03811681146109f057600080fd5b60008060408385031215610db457600080fd5b8235610dbf81610d8c565b946020939093013593505050565b600080600060608486031215610de257600080fd5b8335610ded81610d8c565b92506020840135610dfd81610d8c565b929592945050506040919091013590565b600060208284031215610e2057600080fd5b8135610d0c81610d8c565b60008060408385031215610e3e57600080fd5b8235610e4981610d8c565b915060208301358015158114610e5e57600080fd5b809150509250929050565b634e487b7160e01b600052604160045260246000fd5b60008060008060808587031215610e9557600080fd5b8435610ea081610d8c565b93506020850135610eb081610d8c565b925060408501359150606085013567ffffffffffffffff80821115610ed457600080fd5b818701915087601f830112610ee857600080fd5b813581811115610efa57610efa610e69565b604051601f8201601f19908116603f01168101908382118183101715610f2257610f22610e69565b816040528281528a6020848701011115610f3b57600080fd5b82602086016020830137600060208483010152809550505050505092959194509250565b60008060408385031215610f7257600080fd5b8235610f7d81610d8c565b91506020830135610e5e81610d8c565b600181811c90821680610fa157607f821691505b60208210811415610fc257634e487b7160e01b600052602260045260246000fd5b50919050565b600060208284031215610fda57600080fd5b8151610d0c81610cd9565b600060208284031215610ff757600080fd5b8151610d0c81610d8c565b634e487b7160e01b600052601160045260246000fd5b6000821982111561102b5761102b611002565b500190565b600060001982141561104457611044611002565b5060010190565b60006001600160a01b0380871683528086166020840152508360408301526080606083015261107d6080830184610d13565b9695505050505050565b600080845481600182811c9150808316806110a357607f831692505b60208084108214156110c357634e487b7160e01b86526022600452602486fd5b8180156110d757600181146110e857611115565b60ff19861689528489019650611115565b60008b81526020902060005b8681101561110d5781548b8201529085019083016110f4565b505084890196505b50978552505050930194935050505056fea164736f6c634300080b000aa164736f6c634300080b000a",
  "linkReferences": {},
  "deployedLinkReferences": {}
}